:020000040800F2
:1000000000500020B1050008F9050008F9050008B6
:10001000F9050008F9050008F905000800000000CE
:10002000000000000000000000000000F9050008CA
:10003000F905000800000000F9050008F9050008AE
:10004000F9050008F9050008F9050008F905000898
:10005000F9050008F9050008F9050008F905000888
:10006000F9050008F9050008F9050008F905000878
:10007000F9050008F9050008F9050008F905000868
:10008000F9050008F9050008F9050008F905000858
:10009000F9050008F9050008F9050008F905000848
:1000A000F9050008F9050008F9050008F905000838
:1000B000F9050008F9050008F9050008F905000828
:1000C000F9050008F9050008F9050008F905000818
:1000D000F9050008F9050008F9050008F905000808
:1000E000F9050008F9050008F905000800000000FE
:1000F0000000000000000000000000000000000000
:0C01000000000000000000005FF808F1A3
:10010C0070B50D4E0D4D761BB61006D00024013483
:10011C0055F8043B9847A642F9D1094E094D00F019
:10012C0067FA761BB61006D00024013455F8043B50
:10013C009847A642F9D170BD1406000814060008B1
:10014C00180600081406000810B5054C237833B9BE
:10015C00044B13B10448AFF300800123237010BD8E
:10016C000000002000000000FC05000808B5034B4F
:10017C001BB103490348AFF3008008BD0000000029
:10018C0004000020FC05000880B400AF0A4B0B4AA9
:10019C005A60094B00229A60074B05221A6000BF77
:1001AC00054B1B6803F48033002BF9D000BF00BF54
:1001BC00BD4680BC704700BF10E000E03F19010055
:1001CC0080B582B000AF786004E0FFF7DDFF7B689C
:1001DC00013B7B607B68002BF7D100BF00BF083769
:1001EC00BD4680BD80B582B000AF0121082000F073
:1001FC0001F94FF4C043BB800323BB711023FB7187
:10020C003B1D19460E4800F01DF84FF480410C4878
:10021C0000F0E2F84FF40051094800F0CFF8032049
:10022C00FFF7CEFF4FF40051054800F0D5F84FF41E
:10023C008041034800F0C2F80320FFF7C1FFE4E758
:10024C00000C014080B489B000AF786039600023A5
:10025C00FB6100233B610023BB610023FB60002397
:10026C007B610023BB603B68DB7803F00F03FB6111
:10027C003B68DB7803F01003002B05D03B689B78C0
:10028C001A46FB691343FB613B681B88DBB2002BEE
:10029C0044D07B681B687B610023BB6138E0012282
:1002AC00BB6902FA03F3FB603B681B881A46FB68C8
:1002BC0013403B613A69FB689A4226D1BB699B00AB
:1002CC00FB600F22FB6802FA03F3BB60BB68DB43E5
:1002DC007A6913407B61FA69FB6802FA03F37A6965
:1002EC0013437B613B68DB78282B05D10122BB696A
:1002FC009A407B685A6108E03B68DB78482B04D154
:10030C000122BB699A407B681A61BB690133BB61EE
:10031C00BB69072BC3D97B687A691A603B681B8859
:10032C00FF2B46D97B685B687B610023BB613AE09D
:10033C00BB690833012202FA03F3FB603B681B889C
:10034C001A46FB6813403B613A69FB689A4227D115
:10035C00BB699B00FB600F22FB6802FA03F3BB60D6
:10036C00BB68DB437A6913407B61FA69FB6802FA6C
:10037C0003F37A6913437B613B68DB78282B05D147
:10038C00BB69083301229A407B685A613B68DB7871
:10039C00482B05D1BB69083301229A407B681A614E
:1003AC00BB690133BB61BB69072BC1D97B687A6917
:1003BC005A6000BF2437BD4680BC704780B483B000
:1003CC0000AF78600B467B807A887B681A6100BF2F
:1003DC000C37BD4680BC704780B483B000AF7860EA
:1003EC000B467B807A887B685A6100BF0C37BD4610
:1003FC0080BC704780B483B000AF78600B46FB7054
:10040C00FB78002B06D0094B9A6908497B6813438B
:10041C008B6106E0054B9A697B68DB43034913400B
:10042C008B6100BF0C37BD4680BC7047001002408A
:10043C0080B500AF154B1B68144A43F001031360E1
:10044C00124B5A681149124B13404B600F4B1B68EF
:10045C000E4A23F0847323F4803313600B4B1B6818
:10046C000A4A23F480231360084B5B68074A23F481
:10047C00FE035360054B4FF41F029A6000F00CF81A
:10048C00044B4FF000629A6000BF80BD0010024028
:10049C000000FFF800ED00E080B500AF00F002F8BE
:1004AC0000BF80BD80B483B000AF00237B6000230D
:1004BC003B603A4B1B68394A43F480331360374B2B
:1004CC001B6803F400333B607B6801337B603B6843
:1004DC00002B03D17B68B3F5A06FF0D12F4B1B68B9
:1004EC0003F40033002B02D001233B6001E0002316
:1004FC003B603B68012B4BD1294B1B68284A43F0CE
:10050C0010031360264B1B68254A23F0030313606A
:10051C00234B1B68224A43F0020313601F4B1F4AF4
:10052C005B6853601D4B1D4A5B6853601B4B5B68DB
:10053C001A4A43F480635360184B5B68174A23F4E0
:10054C007C135360154B5B68144A43F4E8135360F7
:10055C00124B1B68114A43F08073136000BF0F4BA2
:10056C001B6803F00073002BF9D00C4B5B680B4A33
:10057C0023F003035360094B5B68084A43F0020302
:10058C00536000BF054B5B6803F00C03082BF9D1DB
:10059C0000BF0C37BD4680BC704700BF0010024046
:1005AC0000200240002103E00B4B5B584350043108
:1005BC000A480B4B42189A42F6D30A4A02E000232F
:1005CC0042F8043B084B9A42F9D3FFF731FFFFF78F
:1005DC0097FDFFF707FE70471C060008000000207F
:1005EC0000000020000000201C000020FEE700009E
:1005FC00F8B500BFF8BC08BC9E467047F8B500BF04
:08060C00F8BC08BC9E467047D3
:040614007901000860
:040618005501000880
:04000005080005B139
:00000001FF
